:100000000CC027C026C025C024C023C022C021C0E8
:1000100020C01FC01EC01DC01CC011241FBECFE5C4
:10002000D2E0DEBFCDBF10E0A0E6B0E0E2EDF1E04F
:1000300003C0C89531960D92A437B107D1F710E0EF
:10004000A4E7B0E001C01D92A637B107E1F716D0D2
:10005000BEC0D6CF8FEF84BB81BB80E487B987E871
:1000600086B9089597B18770987F892B87B9369A9A
:100070003699FECF24B135B1C9010895DF92EF92D0
:10008000FF920F931F93CF93DF938FEF84BB81BBBE
:1000900080E487B987E886B981E082BB82ED90E091
:1000A000909375008093740054E0D52E1FEF48E0C4
:1000B000E42EFF24F39402E0C0EADFE082B3823052
:1000C000D9F0833018F48130A9F50DC0843001F1E6
:1000D000883081F5F2BA15BB80917400909175005B
:1000E00068EE73E011C002BB15BB80917400909163
:1000F000750064E670E008C0D2BA15BB8091740048
:10010000909175006AE070E00E94D100CB0106C0BA
:10011000E2BA15BB80917400909175006AE070E0BE
:100120000E94D100FC01EE0FFF1FE05AFF4F8081BB
:10013000918185BBCE010197F1F780E00E943200EA
:10014000A0E0B0E0BC01CD0124E630E040E050E0AA
:100150000E94B6002AE096958795779567952A952F
:10016000D1F77093750060937400A8CFFF27EE2736
:10017000BB27AA2760FF04C0A20FB31FE41FF51F0F
:10018000220F331F441F551F9695879577956795C6
:1001900089F70097760771F79F2F8E2F7B2F6A2F95
:1001A0000895AA1BBB1B51E107C0AA1FBB1FA617BE
:1001B000B70710F0A61BB70B881F991F5A95A9F710
:1001C00080959095682F792F8A2F9B2F0895F8940A
:0201D000FFCF5F
:1001D200400079002400300019001200030078006A
:0401E2000000180001
:00000001FF
