:100000000CC027C026C025C024C023C023C021C0E7
:1000100020C01FC01EC01DC01CC011241FBECFE5C4
:10002000D2E0DEBFCDBF10E0A0E6B0E0EAE5F5E04B
:1000300003C0C89531960D92A437B107D1F710E0EF
:10004000A4E7B0E001C01D92A839B107E1F739D0AB
:1000500082C2D6CF1F920F920FB60F9211242F9308
:100060003F934F935F936F937F938F939F93AF9340
:10007000BF93EF93FF930E946B00FF91EF91BF91AD
:10008000AF919F918F917F916F915F914F913F9130
:100090002F910F900FBE0F901F9018958FEF84BB7C
:1000A000789484E294EF9BBD8ABD8EB588608EBD46
:1000B00089B7806189BF8EB583608EBD0E94730150
:1000C00008950E944E0080E690E061E041E020E06B
:1000D0000E943101F8CFDF93CF93CDB7DEB72797DA
:1000E0000FB6F894DEBF0FBECDBFA9982091740063
:1000F0003091750035FD8DC037FF2CC09091770091
:1001000036FF15C085B385BBE92FF0E0E858FF4FF7
:10011000808180937600892F8F5F8093770090E0B5
:100120008F709070892B09F074C03F7B6EC085B3CF
:1001300085BB903220F480E48093760004C0109256
:100140007600109277008091760080688093760028
:1001500030645BC0DE011196EDE6F0E087E00190CF
:100160000D928150E1F785B385BBC9018F779070FF
:10017000892B09F048C0C90180709F70492F55270D
:100180004115510539F4205B3F4F309375002093A2
:10019000740013C04130510541F4265F3F4F309346
:1001A00075002093740080E305C0FE013197E40FD1
:1001B000F51F808180937600A99A20917400309178
:1001C0007500307F4530510510F4306201C0306158
:1001D0003093750020937400209174003091750065
:1001E0004830510548F03069309375002093740011
:1001F00080E2809377000DC04F5F5F4F942F882778
:10020000282B392B02C021503040309375002093A9
:10021000740095B320917600822F807F9F70892B88
:1002200085BB809174009091750095FF02C09F7D01
:1002300005C02295207F20937600906290937500F0
:1002400080937400809174009091750094FDA99A38
:1002500027960FB6F894DEBF0FBECDBFCF91DF91CA
:100260000895DC01633040F5413130F54150862F6F
:1002700090E0019754E0880F991F5A95E1F7480FD5
:1002800015C0E42FF0E0E858FF4F80834F5F222332
:1002900021F0403250F040E008C0842F90E08F7091
:1002A0009070892B11F480E1089511968C91882328
:1002B00041F7842F8F70089580E00895833090F483
:1002C0008295807F8051282F30E0215F3F4F90E260
:1002D00004C0E858FF4F90838F5FE82FF0E02E179F
:1002E0003F07BCF7089580E090E020E2FC01E85869
:1002F000FF4F2083019680329105C1F70895833026
:1003000090F4613180F48295807F8051615090E05B
:1003100020E207C0FC01E60FF11DE858FF4F2083E3
:100320006F5F6031B8F308950895DF92EF92FF9206
:100330000F931F93DF93CF9300D000D000D0CDB7A1
:10034000DEB7FC01D62EF42EE22E60E177E20E94A9
:100350006E02162F105D1983CF0160E177E20E94D3
:100360006E029C0168EE73E00E946E02462F405DB3
:100370004A83C90168EE73E00E946E029C0164E644
:1003800070E00E946E02F62FF05DFB83C90164E607
:1003900070E00E946E029C016AE070E00E946E02B2
:1003A000E62FE05DEC83C9016AE070E00E946E0216
:1003B000805D8D831E82DD20F1F0103311F020E08E
:1003C00012C080E28983403311F021E00CC08A839F
:1003D000F03311F022E007C08B83E03311F023E00B
:1003E00002C08C8324E0CE01019631E0D31629F0BF
:1003F000820F911D02C0CE0101966F2D4E2D202F30
:100400000E94310126960FB6F894DEBF0FBECDBF15
:10041000CF91DF911F910F91FF90EF90DF900895A2
:100420006F927F928F929F92AF92CF92EF920F93A3
:10043000CF93DF933B014C01283019F4CFEFD0E08C
:1004400013C02A3019F4CFEFD3E00EC02C3019F4CA
:10045000CFEFDFE009C02E3019F4CFEFDFE304C0A7
:100460002031B1F4CFEFDFEFBA0180E090E0A401DA
:1004700093010E9453029E0140E050E00E948402DA
:10048000DA01C901602F4E2D2C2D0A2D0E949501F5
:10049000DF91CF910F91EF90CF90AF909F908F9081
:1004A0007F906F900895FF27EE27BB27AA2760FF54
:1004B00004C0A20FB31FE41FF51F220F331F441FF8
:1004C000551F969587957795679589F700977607D5
:1004D00071F79F2F8E2F7B2F6A2F0895AA1BBB1BAE
:1004E00051E107C0AA1FBB1FA617B70710F0A61B34
:1004F000B70B881F991F5A95A9F780959095682F7B
:10050000792F8A2F9B2F0895A1E21A2EAA1BBB1BBD
:10051000EA2FFB2F0DC0AA1FBB1FEE1FFF1FA21744
:10052000B307E407F50720F0A21BB30BE40BF50BB0
:10053000661F771F881F991F1A9469F76095709539
:1005400080959095262F372F482F592F6A2F7B2F74
:0A0550008E2F9F2F0895F894FFCF1F
:10055A0048656C6C6F20576F726C642100303020D4
:04056A002808060C4B
:00000001FF
