:100000000CC01BC01AC019C018C017C017C015C03B
:1000100014C013C012C011C010C011241FBECFE500
:10002000D2E0DEBFCDBF10E0A0E6B0E001C01D927F
:10003000A236B107E1F719D03AC0E2CF1F920F9272
:100040000FB60F9211248F939F938091600090912F
:100050006100019690936100809360009F918F9161
:100060000F900FBE0F901F9018958EB582608EBDB9
:100070008FEF9FE09BBD8ABD89B7806189BF8FEFFD
:1000800084BB81BB82BB789485BB2FEF80916000DD
:10009000909161000697D0F3109261001092600079
:1000A00085B3882311F425BBF1CF15BAEFCFF894AF
:0200B000FFCF80
:00000001FF
