:100000000C942A000C9447000C9447000C94470071
:100010000C9447000C9447000C9447000C94470044
:100020000C9447000C94CD000C9447000C944700AE
:100030000C9447000C9447000C9447000C94470024
:100040000C9447000C9447000C9447000C94470014
:100050000C94470011241FBECFE5D4E0DEBFCDBF16
:1000600010E0A0E6B0E0E4ECF5E002C005900D92EF
:10007000A837B107D9F710E0A8E7B0E001C01D929A
:10008000A238B107E1F70E9482000C94E0020C94C0
:10009000000085E083BF81E088BF89BF7894089520
:1000A0008FEF84BB81BB80EF87BB85E083BF81E09E
:1000B00088BF89BF78940E94320180E487B987E8BD
:1000C00086B980E090E00E94B8028536910528F458
:1000D00090937C0080937B0004C010927C0010926F
:1000E0007B0081E090E00E94B8028230910528F404
:1000F0009093800080937F0008951092800010926A
:100100007F0008950E94500081E082BB80917900B9
:1001100090917A008130910541F08230910541F053
:10012000892B41F40E94390105C00E94F60102C0EA
:100130000E948D0184E00E942601882381F0809135
:10014000790090917A00039754F48091790090910E
:100150007A00019690937A008093790004C01092FF
:100160007A001092790020917D0030917E0080917C
:100170007B0090917C002817390710F4C59A01C0C4
:10018000C598C69908C080917F0090918000892B06
:1001900011F0C69ABBCFC698B9CF1F920F920FB677
:1001A0000F9211242F933F934F935F936F937F93FD
:1001B0008F939F93AF93BF93EF93FF9326B33091A9
:1001C0007800209523278091630082238095809377
:1001D000630090916200922398279093620082239B
:1001E0008923982F9327909378002091810098235A
:1001F000922B90938100C79A80E00E946602A0E053
:10020000B0E0BC01CD0124E630E040E050E00E94C7
:1002100072022AE096958795779567952A95D1F78A
:1002200070937E0060937D00C798FF91EF91BF911E
:10023000AF919F918F917F916F915F914F913F917E
:100240002F910F900FBE0F901F9018952FB7F89415
:10025000909181008923909181009827909381004B
:100260002FBF089587B3887F87BB88B3876088BB1B
:10027000089582B38230C1F0833018F48130B1F533
:100280000AC08430F9F0883089F581E082BB8FEFB5
:1002900085BB89E02AC082E082BB8FEF85BB80915D
:1002A00066009091670021C084E082BB8FEF85BB20
:1002B00080917D0090917E006AE070E00E94A5022E
:1002C000CB0108C088E082BB8FEF85BB80917D00A9
:1002D00090917E006AE070E00E94A502FC01EE0FA2
:1002E000FF1FEC59FF4F8081918185BB81E00E9407
:1002F0002601882331F081E090E090937A0080938A
:10030000790082E00E942601882331F081E090E0AC
:1003100090937A0080937900089582B38230C1F07F
:10032000833018F4813089F50AC08430D1F08830E8
:1003300061F581E082BB8FEF85BB87E425C082E059
:1003400082BB8FEF85BB80916600909167001CC0D7
:1003500084E082BB8FEF85BB809164009091650043
:1003600013C088E082BB8FEF85BB80917F009091A6
:1003700080006AE070E00E949102FC01EE0FFF1F16
:10038000EC59FF4F8081918185BB81E00E9426015D
:100390008823A1F080917F0090918000892B71F4D7
:1003A00081E090E09093800080937F0080917F00B7
:1003B0009091800061E070E00E94BE0282E00E94A5
:1003C0002601882391F080917F0090918000019711
:1003D00061F41092800010927F0080917F009091D4
:1003E000800061E070E00E94BE02089582B3823016
:1003F000C1F0833018F48130B1F50AC08430F9F0CF
:10040000883089F581E082BB8FEF85BB89E02AC007
:1004100082E082BB8FEF85BB80916800909169007C
:1004200021C084E082BB8FEF85BB80917B009091DF
:100430007C006AE070E00E949102CB0108C088E075
:1004400082BB8FEF85BB80917B0090917C006AE03E
:1004500070E00E949102FC01EE0FFF1FEC59FF4F6C
:100460008081918185BB81E00E942601882389F0EB
:1004700080917B0090917C00019690937C0080930A
:100480007B0080917B0090917C0060E070E00E9496
:10049000BE0282E00E9426018823B9F080917B0091
:1004A00090917C00892B89F080917B0090917C0059
:1004B000019790937C0080937B0080917B009091CA
:1004C0007C0060E070E00E94BE02089597B18770E2
:1004D000987F892B87B9369A3699FECF24B135B1EA
:1004E000C9010895629FD001739FF001829FE00DC2
:1004F000F11D649FE00DF11D929FF00D839FF00DA3
:10050000749FF00D659FF00D9927729FB00DE11D4E
:10051000F91F639FB00DE11DF91FBD01CF0111242B
:100520000895AA1BBB1B51E107C0AA1FBB1FA6173A
:10053000B70710F0A61BB70B881F991F5A95A9F78C
:1005400080959095BC01CD01089597FB092E072653
:100550000AD077FD04D0E5DF06D000201AF47095AC
:1005600061957F4F0895F6F7909581959F4F089577
:10057000A8E1B0E042E050E00C94C5020E94D30232
:10058000272F0C94D402DC01CB01FC01E199FECFB2
:1005900006C0FFBBEEBBE09A31960DB20D92415002
:1005A0005040B8F70895262FE199FECF9FBB8EBB30
:1005B0002DBB0FB6F894E29AE19A0FBE019608950A
:0405C000F894FFCFDD
:1005C4001400FFFF400079002400300019001200DD
:0805D40003007800000018008C
:00000001FF
