:100000000CC01FC01EC01DC01CC01BC01AC019C020
:1000100018C017C016C015C014C011241FBECFE5EC
:10002000D2E0DEBFCDBF10E0A0E6B0E0E8E4F1E052
:1000300003C0C89531960D92A637B107D1F706D007
:1000400081C0DECF8FEF84BB81BB0895EF92FF921A
:100050000F931F93CF93DF938FEF84BB81BB81E01E
:1000600082BB20E030E044E0E42E4FEF98E0F92E30
:1000700001E012E0C0EADFE082B38230D9F08330E1
:1000800018F48130A9F50DC0843001F1883081F574
:1000900002BB45BB809174009091750068EE73E0DF
:1000A00011C012BB45BB809174009091750064E64D
:1000B00070E008C0E2BA45BB809174009091750071
:1000C0006AE070E00E948C00CB0106C0F2BA45BB2A
:1000D00080917400909175006AE070E00E948C003D
:1000E000FC01EE0FFF1FE05AFF4F8081918185BB1D
:1000F000CE010197F1F72233310559F48091740054
:10010000909175000197909375008093740020E0A2
:1001100030E02F5F3F4FB0CFAA1BBB1B51E107C0A0
:10012000AA1FBB1FA617B70710F0A61BB70B881F87
:10013000991F5A95A9F780959095682F792F8A2F46
:080140009B2F0895F894FFCFF6
:1001480040007900240030001900120003007800F4
:06015800000018002F1545
:00000001FF
